:020000021000EC
:1090000000600020759301005D9301005F930100F3
:10901000619301006393010065930100000000006B
:109020000000000000000000000000006793010045
:1090300069930100000000006B9301006D93010033
:1090400021AF01006F930100F5B001006F930100A3
:109050006F93010000000000ADAF01006F930100AD
:109060006F9301006F9301006F9301006F930100F4
:109070006F9301006F9301006F9301006F930100E4
:109080006F9301003DA301006F9301006F930100F6
:109090006F9301006F93010025C401006F930100DD
:1090A0006F9301006F9301000000000000000000BA
:1090B0006F9301006F9301000000000000000000AA
:1090C00000000000000000000000000000000000A0
:1090D0000000000000000000000000000000000090
:1090E0000000000000000000000000000000000080
:1090F0000000000000000000000000000000000070
:10910000000000000000000000000000000000005F
:10911000000000000000000000000000000000004F
:10912000000000000000000000000000000000003F
:10913000000000000000000000000000000000002F
:10914000000000000000000000000000000000001F
:10915000000000000000000000000000000000000F
:1091600000000000000000000000000000000000FF
:1091700000000000000000000000000000000000EF
:1091800000000000000000000000000000000000DF
:1091900000000000000000000000000000000000CF
:1091A00000000000000000000000000000000000BF
:1091B00000000000000000000000000000000000AF
:1091C000000000000000000000000000000000009F
:1091D000000000000000000000000000000000008F
:1091E000000000000000000000000000000000007F
:1091F000000000000000000000000000000000006F
:10920000354936480A1A02D0072291438D4634491F
:1092100034480A1A06D00722914381F309880222B2
:1092200082F3148830483149314A00F044F831481B
:109230003149324A00F03FF831483249324A00F0B1
:109240003AF832483249334A00F035F83248334967
:10925000334A00F030F833483349344A00F02BF8F1
:1092600033483449344A00F026F83448344900225F
:1092700000F02CF833483449002200F027F8334836
:109280003349091A082902DB002202604160314A91
:1092900090471F481F49884205D00268043003B434
:1092A000904703BCF7E700208646EC4600200021EB
:1092B000294A9047FEE7884207D0521A05D0037822
:1092C00001300B700131013AF9D17047884202D068
:1092D00002700130FAE7704700600020005800205B
:1092E00000600020006000205CD60100E01A002031
:1092F0001C1B0020BC930100BC930100CAC80100E4
:109300005CD60100E01A0020E01A0020B8C9010074
:10931000B8C90100B8C90100B8C90100B8C9010045
:10932000B8C90100B8C90100B8C901005CD6010084
:1093300098D601001C1B00201C1B00201C1B0020B9
:10934000F0250020F0250020F0250020F025002049
:10935000F02D00208B93010039B20100FEE7FEE7FB
:10936000FEE7FEE7FEE7FEE7FEE7FEE7FEE7FEE7D5
:1093700000F002B8FFF7FCBF0B484FF0070188432D
:1093800085460A488047FFF73BBF094809490A4A12
:10939000884207D0521A05D0037801300B70013192
:1093A000013AF9D17047000000600020E1AB0100F4
:0C93B000B8C90100E01A0020E01A0020FB
:1093BC007047000007B5044B0093044A402300F0AB
:1093CC0032F803B05DF804FBDD9301001D1B002097
:1093DC002DE9F84389461446B2B10F4B0F4E0325C5
:1093EC00002743F00108224609EB0701002002F098
:1093FC00B9F80744241A48B933782BB14FF47A40A2
:10940C00C047013D02D13570BDE8F88301233370AC
:10941C00002CE8D1F8E700BFC0C901001C1B0020DC
:10942C00704702F0D3B8F0B595B01C461646084606
:10943C000D4601F00BFB1A9B0D93CDE9086400243B
:10944C002346082205A928460A948DF82C400C9432
:10945C0001F019FB079B0293069B03939DF81430B4
:10946C008DF8114003F00302012A1DD1BDF8144000
:10947C00059EC3F3C203C4F383148DF81030A2000D
:10948C0008230EA9284601F0FEFAC6F3952608AB70
:10949C000093224602AB0EA9304600F02DFB284665
:1094AC0001F0D8FA15B0F0BD022AF8D1BDF816407B
:1094BC00C3F3C203A4098DF810300827082C2646E4
:1094CC0028BF08263B4632460EA9284601F0DBFA97
:1094DC00A41B08AB02AA31460EA8374400F070FB5F
:1094EC00002CEBD1DBE7000008B5FFF79AFF042155
:1094FC00034800F071FA034B01225A7108BD00BFFA
:10950C00A8C90100E01A0020037813F0040216D059
:10951C0003F00303012B03D0022B09D00120704769
:10952C000A6800880232C0F3831002440A60F5E72F
:10953C000B684288023303EB92130B60EEE7104684
:10954C00704700002DE9F04F87B000230446851CBE
:10955C000DF107000E4690468DF8073000F07EFDA9
:10956C00404A50683060936803F580731B1A92462A
:10957C0002F21C4602F5836902F21447AB4219D37E
:10958C000023B8F1000F66D0052262F3070364F3E1
:10959C008913DAF804209DF80700D1B20331154481
:1095AC004AF82130CAF8045000F07CFD012007B0C5
:1095BC00BDE8F08F0121304600F093FF484600F0E3
:1095CC00A6FF384600F0A3FFDAF808000290C0B2FC
:1095DC0003300AEB800002A9FFF796FF029B30BB19
:1095EC00DAB20AEB8202D16803919A1C0133DBB226
:1095FC000AEB83030292D3F80CB001F00303012BA6
:10960C0021D0022B15D08346384600F083FF10B1D1
:10961C00029BCAF808305946304600F062FFDAF86F
:10962C000830DAF8042003F580739B1AA6E7D8B249
:10963C00CEE7BDF80E309B0903334FEA1B4B02EB10
:10964C0093030293E0E7BDF80C30C3F383134FEAA6
:10965C001B4B1344F5E7062262F3070364F39F5395
:10966C0097E700BF301C0020064B074810B50022BE
:10967C001A7001F0A4F9044610B9044801F032FA4A
:10968C00204610BD301C00201CC90100E4C901009B
:10969C0030B50A4C71B10A4A0A49121BD208002390
:1096AC009A4201D1002030BD31F82350854202D0BE
:1096BC000133F5E7034654F83300F4E730C90100F1
:1096CC00A8C90100E01A0020094B013903EBC000C6
:1096DC00032909D8DFE801F00A02040604207047C8
:1096EC00007970474079704700207047022070471E
:1096FC0030C90100034BD3E90130C31A5842584119
:10970C00704700BF301C00202DE9F04186B0FFF7F8
:10971C00F1FF0546002840F0E680744CC4F81804AC
:10972C00BFF34F8FA0680290C0B2033004EB8000EF
:10973C0002A9FFF7E9FE029B18B1D4F81824002AFD
:10974C0053D0DAB2991C013304EB8202DBB204EB86
:10975C008303D268DB68049302F00303022B0392A9
:10976C0002914FD1BDF80E3061484FEA931847462D
:10977C00502F28BF502767F38F1307F10801ADF85E
:10978C000E3001F034F90546002800F0978001F006
:10979C005DF903A900230822284601F06AF9029911
:1097AC00CE43F6B20136B600C9B20331B74204EB70
:1097BC00810124D908233246BF1B284601F059F9F0
:1097CC00FFB24C4906F108033A46284601F051F91C
:1097DC00029B08F1030803EB98030293D4F81834A6
:1097EC00002B43D1D4F8106453E062689A4204D839
:1097FC00A260284606B0BDE8F081D8B295E70823F0
:10980C003A46E2E7012B59D1BDF80C303848C3F386
:10981C008311062928BF062161F3891302318900BF
:10982C00ADF80C3001F0E3F80546002846D001F005
:10983C000DF90023082203A9284601F01AF9002685
:10984C00BDF80C20C2F38312B300964203F1080357
:10985C00C4D202994A1CC9B20331029204EB8101B1
:10986C000422284601F005F90136E9E7284601F003
:10987C00F1F8FFF73FFF80F00100C5B2B9E7F368DC
:10988C005B7923B1336829461B6830469847F368E7
:10989C001E68002EF3D1284601F0DCF80DF107000C
:1098AC008DF8076000F0DAFBD4F818340BB9029B82
:1098BC00A3609DF8070000F0F5FBDAE7D4F810443C
:1098CC0054B90D4B0D480E49C01AC008000440F0A5
:1098DC00020000F069F8CCE7236820469B689847A3
:1098EC00E3681C68ECE7002583E700BF301C002010
:1098FC001CC901003C1C002030C9010058C90100E2
:10990C00F0C901002DE9F34780460F46924601A9A4
:10991C00012218469946FFF715FE214D70B3019CA4
:10992C000026A11C4E4506EB010230D100211D483A
:10993C0000F0ACFD80F31000631CDBB205EB83037D
:10994C00000440EA1840D860E3B2033315F8232032
:10995C0068F3C50205F8232035F8232066F3891235
:10996C0025F8232055F8232067F39F2245F8232060
:10997C0002F0F80242F0010205F823202B781BB10B
:10998C00FFF7C2FE0028FBD102B0BDE8F087D2B2CF
:10999C0005EB82025AF82630D3600136C2E700BFCD
:1099AC00301C00204C20002000231A46FFF7AABFD1
:1099BC0007B50123019201AAFFF7A4FF03B05DF8DC
:1099CC0004FB07B5CDE9002302236A46FFF79AFF93
:1099DC0003B05DF804FB000030B50F49D1F810243A
:1099EC00002314463CB9C468237152B9C1F8100461
:1099FC002260184630BDE46825799D4206D0246863
:109A0C00F0E7D268116821601060F2E701330A2B8D
:109A1C00E7D14FF0FF33ECE7301C0020084A38B593
:109A2C000123D2F8104413701D4604B938BDE36805
:109A3C005D71236820465B689847E3681C68F4E70F
:109A4C00301C0020037A052B10B50C460FD0437A3E
:109A5C0023B1084A0849204600F0BFFD07492046BB
:109A6C0000F0BBFD2046BDE8104000F0ABBD002A65
:109A7C00F8D0F3E73BCA010040CA010060CA0100FC
:109A8C00C38873B504460D4633B1144A0092144989
:109A9C00144A284600F0A1FD217A05291CD0637ACE
:109AAC004BB1A088FFF710FE0F4B104953F8202044
:109ABC00284600F092FD227A0D4BA08853F82260C4
:109ACC000021FFF7E5FD0B4903463246284602B05C
:109ADC00BDE8704000F081BD02B070BD3BCA010012
:109AEC004BCA010043CA010008CA010040CA010068
:109AFC0070CA010063CA01002DE9F04385B01F460E
:109B0C000C9D002306460C46904695F80C902B7342
:109B1C0029463846FFF7B4FFB8F1060F09D8DFE83D
:109B2C0008F00412181F283340003146284600F074
:109B3C0054FD002229463846FFF784FF85F80C9027
:109B4C0005B0BDE8F08322683146284600F045FD9B
:109B5C00EFE7D4E900233146284600F03EFDE8E764
:109B6C00A36800933146D4E90023284600F035FD64
:109B7C00DFE7E3680193A36800933146D4E900233F
:109B8C00284600F02AFDD4E723690293E368019389
:109B9C00A36800933146D4E90023284600F01DFD4C
:109BAC00C7E76369039323690293E3680193A3688E
:109BBC0000933146D4E90023284600F00EFDB8E7A7
:109BCC0008292DE9F84F80460E4617461C463AD810
:109BDC00002593F80C901D7319461046FFF750FFA3
:109BEC00DFF884A0DFF884B0AE422ED918F8052037
:109BFC005946204600F0F1FC0135082DF4D11849E6
:109C0C00DFF86CB0204600F0E8FC4FF0000A564537
:109C1C0020D918F80A507E2D03D8284602F09CFD56
:109C2C0000B92E252A465946204600F0D6FC0AF1EA
:109C3C00010ABAF1080FEAD1012221463846FFF792
:109C4C0001FF84F80C90BDE8F88F5146204600F0D7
:109C5C00C4FCD1E70349204600F0BFFCE7E700BF96
:109C6C0036CA010034CA010032CA01002CCA0100F4
:109C7C0038CA01001FB50021039001AA44F201006B
:109C8C00CDE9011100F004F805B05DF804FB00000B
:109C9C0010B572B6FFF7C2FEFFF736FD0028FBD1F8
:109CAC00104B114C1149E41AE408240444F001004F
:109CBC00FFF77AFE0E4B1B68DB0700D500BE0D4983
:109CCC0044F00200FFF770FEBFF34F8F0A490B4BB5
:109CDC00CA6802F4E0621343CB60BFF34F8F00BF3E
:109CEC00FDE700BF30C9010058C90100DACA010004
:109CFC00F0ED00E0E6CA010000ED00E00400FA051A
:109D0C00D0E90223D1E90201994208BF90422CBF4D
:109D1C0001200020704700002DE900480C4800F09D
:109D2C00F0FA0C4BD3E9002312EB000B43F1000CBF
:109D3C00094BD3E900239C4508BF9345584661461F
:109D4C0003D21BF180704CF10001BDE8008800BF0C
:109D5C00E81A0020F02000206821002037B50546C5
:109D6C000C460A4801A900F000FB60B10570446084
:109D7C0001A9064800F023FB18B1054800F0C6FA0B
:109D8C00002003B030BD0420FBE700BF54210020AD
:109D9C00E81A0020194B1B782DE9304804461BB9F2
:109DAC0000252846BDE830880028F9D0037F03F051
:109DBC00FF05002BF4D0FFF7AFFFD4E90223994243
:109DCC0008BF904215D3236903B92377D4E9053032
:109DDC00984721690029E3D0237F03F0FF05002B6E
:109DEC00DED0D4E9022312EB010B43F1000CC4E9E1
:109DFC0002BC2146024800F094FED2E7F820002075
:109E0C00F8CA010013B5114B1149186801900823C9
:109E1C005822104800F096FA044698B90E4A0F489A
:109E2C0001A900F063F9044660B901210B4800F068
:109E3C004BFA01230A4A0948194600F0B1F9094BBB
:109E4C0001221A70204602B010BD00BFF4CA0100F6
:109E5C00FC20002054210020D59E0100E81A00208F
:109E6C00FFFF7F00F82000203AB103685A614A1EB8
:109E7C00514251411961002070470720704738B595
:109E8C00037F04460D4683B98261FFF745FF4219F3
:109E9C0041F10003C4E90223236903B12561214682
:109EAC000020BDE83840FFF759BF002038BD002323
:109EBC00014603770120FFF751BF0000014800F075
:109ECC0020BA00BFE81A00202DE9F04F85B00746F4
:109EDC0000F002FA40B1594AD2E9003113F1807313
:109EEC0041F10001C2E900310021384600F003FACB
:109EFC0038B1534C236823B12068FFF74BFF002384
:109F0C0023600121384600F0F6F920B1FFF704FF79
:109F1C004C4BC3E9000103A94B48494D4B4C4C4EEB
:109F2C0000F05DFA002845D1DFF820A1444CDFF8A1
:109F3C0028B1504600F00BFE2368002875D07BB189
:109F4C002368D0E90201D3E90223994208BF904269
:109F5C002DD223681B7F1BB12168504600F0E1FD18
:109F6C00504600F0EEFDD0E9026305460193FFF781
:109F7C00D3FE019BB6EB000863EB0109B8F1010FAE
:109F8C0079F1000344DB334EB0453FD9FFF796FF20
:109F9C0082194FF496030021584600F021F900284D
:109FAC003ED1236813B9384600F0F2F8256005B0AD
:109FBC00BDE8F08F0378012B1DD05BB1022B11D1C2
:109FCC004FF0000A204600F0BCFD002833D080F88A
:109FDC001CA0F7E741680B7F23B901230B772046C0
:109FEC0000F09FFD03A9184800F024FA03A91648B5
:109FFC0000F0F5F996E741682B68994202D10023ED
:10A00C002B60EFE7204600F0A5FDEBE7AA68C0E760
:10A01C000021584600F065F92846FFF7BBFE01E029
:10A02C000D28F9D00023236083E7002BBFD13846DD
:10A03C0000F0B2F8BBE701233370D3E7F020002027
:10A04C00702100206821002054210020F8CA010052
:10A05C00F8200020FFFFB400E81A002070B5EFF3E1
:10A06C00108672B60C4A946801239CB993600B4B12
:10A07C000B4DD3F8801029401160C3F88050D3F8F1
:10A08C00841051604FF0FF32C3F88420047006B97D
:10A09C0062B670BD0370FAE77421002000E100E0A5
:10A0AC00FC06FFBD084B9A6810B55AB150B9EFF3D6
:10A0BC00108172B6054A1C6814605C685460986024
:10A0CC0001B962B610BD00BF7421002000E100E0B0
:10A0DC00435882B03BB10023435043580193019B3A
:10A0EC00012002B070471846FBE70000F8B5204B82
:10A0FC004479204E43F824201F4A204B06EBC4041D
:10A10C009B1A2279DB081B0432B143F002001C4974
:10A11C00FFF74AFC0820F8BD02680C88C2F8084515
:10A12C0090F904508A78002D4FEA4212ECB2D2B268
:10A13C0019DB14494F1987F8002301226D0904F02B
:10A14C001F0402FA04F441F82540427906EBC201DF
:10A15C0001240C7146F832000B4943F00300FFF761
:10A16C0023FC0020D7E704F00F0408490A55ECE75C
:10A17C00882100208021002030C9010068C901001D
:10A18C0016CB010000E100E038CB010014ED00E03B
:10A19C00036801221A607047036801225A607047F5
:10A1AC0073B501F15005AD000068ADB24FF48034C9
:10A1BC008C400026C0F80843C0F84843465101F5CE
:10A1CC00A8714559019522F07F42019D40F821204C
:10A1DC00C0F844430BB1C0F8044302B070BD00009A
:10A1EC002DE9F74F884699464FF48036036808F1FD
:10A1FC0050058E404FEA880AAD00C3F84863ADB2F3
:10A20C00C3F80863074603EB0A00D3F804154FF0B4
:10A21C00000B22F07F44D0F84025C0F8401543F8DD
:10A22C0005B05B590093009B531A23F07F43012B1D
:10A23C000BD1244B4FF4806043F0010398473B68EB
:10A24C0043F805B05B590193019B3868D0F804556D
:10A25C00C0F84463631B23F07F43012B1AD108F52C
:10A26C00A878184B013440F8284043F001034FF410
:10A27C00806098473B68D3F804359D4208D13B6811
:10A28C000020C3F84463C3F8046303B0BDE8F08F47
:10A29C000D20FAE78244C9F1FF19CAF84045D0F8FD
:10A2AC000435E21A013A22F07F4209F57F499145C3
:10A2BC00EED3002AE3D10134CAF84045D0F8042586
:10A2CC009342DBE710CB010003680222C3F844235E
:10A2DC0009B1C3F8042370474FF482710068FFF78B
:10A2EC00F7BE4FF4803303FA01F10368C3F8481347
:10A2FC00C3F8081370475031890089B20068FFF722
:10A30C00E7BE0368D3F804057047000090F90430E9
:10A31C00002B09DB5A09012103F01F0301FA03F397
:10A32C004032024941F82230704700BF00E100E0A2
:10A33C00024B034A1B681068184700BF8821002095
:10A34C008021002010B561B1B2FBF3F403FB14249F
:10A35C00A4B244B9C0E9001484608281C381204650
:10A36C0010BD0E20FCE70920FAE737B550E8013F95
:10A37C009DB2C48925448489A54228BF2D1B04891C
:10A38C00A54202BFBFF32F8F002207E0C5EA0305E9
:10A39C0040E80154002CE9D14FF001028DF8032064
:10A3AC000193019B9DF803200B6002F0FF0322B187
:10A3BC000B880068184403B030BD1846FBE70A88C8
:10A3CC004B889A4209D150E8012FC2EA024240E878
:10A3DC000123002BF7D1012070470020704737B5BF
:10A3EC0050E8023F1FFAA3F5C488A54202BFBFF391
:10A3FC002F8F00220DE0C48925448489A54228BFF3
:10A40C002D1BC3EA054540E80254002CE8D14FF05F
:10A41C0001028DF803200193019B9DF803200B6032
:10A42C0002F0FF0322B14B880068184403B030BD22
:10A43C001846FBE70A884B889A4209D150E8022F4C
:10A44C00C2EA224240E80223002BF7D101207047D8
:10A45C000020704701F01F024B090121914000EBD5
:10A46C00830000F01DB801F01F0301229A404B0934
:10A47C0000EB8300D14300F029B84B0901F01F0118
:10A48C0050F82300C84000F00100704750E8002F3E
:10A49C000B4640E8003C9CF0000FF7D1104670478B
:10A4AC0050E8003F43EA010240E8002C9CF0000F0A
:10A4BC00F6D11046704750E8002F02EA010340E83D
:10A4CC00003C9CF0000FF6D11046704750E8003F5E
:10A4DC0003EA010240E8002C9CF0000FF6D1104674
:10A4EC00704750E8003F03EB010240E8002C9CF061
:10A4FC00000FF6D11046704750E8003FA3EB010265
:10A50C0040E8002C9CF0000FF6D11046704701215A
:10A51C00FFF7C6BF0021FFF7CEBF10B590B1D0E951
:10A52C00012301689B1ADBB20A60013BDBB2FF2BF3
:10A53C00026802D10020107110BD11684C1C14600F
:10A54C000B70F2E70E20F7E737B5054600240DF146
:10A55C0007008DF80740FFF781FD2A686B681168CA
:10A56C0099420ED9481E106011F8014CEB68298AEB
:10A57C0001FB0434AB6811791B1ADBB2994238BF6A
:10A58C0013719DF80700FFF78DFD204603B030BD19
:10A59C0037B5054600230DF107000C468DF8073042
:10A5AC00FFF75CFD2A681368591C1160E968641A8E
:10A5BC00298AB4FBF1F41C709DF80700FFF772FDBB
:10A5CC0003B030BD826810B504462AB143690168F6
:10A5DC00006998470023A36010BD0EB403B503991E
:10A5EC0021B104AB01AA019300F06CF802B05DF844
:10A5FC0004EB03B07047826830B40468551C856066
:10A60C00A154D0E901329A4202D330BCFFF7DABF31
:10A61C0030BC70472DE9F84F9946DDE90A431746DF
:10A62C00824688460A460126BA420FD24E4538BFAA
:10A63C004E4613F0010B01D164B900240125B9F188
:10A64C00010F1AD909F1FF397D43F8E7B2FBF7F294
:10A65C000136E9E79B070ED5B9F1000F0CBF302589
:10A66C002025A642EAD2013C29465046FFF7C3FFFB
:10A67C00002CF6D1E1E72025F3E7B8FBF5F39F4278
:10A68C00E2D9DFF83C90B8FBF5F3504619F803100B
:10A69C0005FB1388FFF7AFFFB5FBF7F3BD4207D2FD
:10A6AC00BBF1000F02D00CB1A64203D3BDE8F88F6A
:10A6BC001D46E8E720215046013CFFF79CFFF2E7DE
:10A6CC004ACB01002DE9F74F05461746884600296D
:10A6DC0000F0318118F8011B49B92B7B002B00F0DD
:10A6EC002A81284603B0BDE8F04FFFF76BBF252940
:10A6FC0040F0C080002698F800302D2B424608F11F
:10A70C00010823D0302B24D02B2B25D000242A2B2E
:10A71C0002F1010123D13B681A1D1B683A601C44ED
:10A72C000A4613782E2B26D101324FF0000A104620
:10A73C0010F8011BA1F1300CBCF1090F1DD80A2334
:10A74C0003FB0A13A3F1300A0246F0E746F00106B8
:10A75C00D1E746F00206CEE746F00406CBE711F847
:10A76C00013CA3F130000928DBD80A2202FB043497
:10A77C00303C0A46CBE74FF0000A12F8011B01F0FF
:10A78C00FB0068289046F8D069290ED04AD8582981
:10A79C0064D006D825296DD098F80030002B99D1BB
:10A7AC009BE7632962D06429F6D13A68D2F800900D
:10A7BC00111D89EAE9723960A2EBE9724FF0010BC5
:10A7CC00092A5BDCD34538BFD3462CB1B9F1000F55
:10A7DC0001DB710700D5013CB20702D5BAF1000FBD
:10A7EC0004D0F30702D4002C4ED10024B9F1000F91
:10A7FC0052DAC9F100092D212846FFF7FCFE06F0BC
:10A80C000302022A05D1BAF1000F02D1002C47D164
:10A81C000024CDE9004653460A2249462846FFF754
:10A82C00F9FEB9E773294CD014D87029B4D13B6820
:10A83C001A1D3A60302128461C68FFF7DCFE78218F
:10A84C002846FFF7D8FE00220823CDE90032214626
:10A85C001022E3E775292BD078299DD139680A1D80
:10A86C003A60CDE900465346102228E03B681A1D99
:10A87C0019783A602846FFF7BEFE8DE70A230BF1E4
:10A88C00010BB2FBF3F29BE7A345AFD22021284684
:10A89C00013CFFF7B0FEA6E77007B0D52B21ABE764
:10A8AC00A345B6D230212846013CFFF7A4FEADE704
:10A8BC003968CDE900460A1D3A6053460A220968F8
:10A8CC00ACE73B681A1D3A60F107D3F8009020D42E
:10A8DC00B9F1000F25D0484601F0C1FF0646B4423D
:10A8EC0000D9C4B909F1FF3920E028460136FFF739
:10A8FC0082FE19F806100029F7D1A642BFF44CAF1E
:10A90C00002C3FF449AF20212846013CFFF773FE91
:10A91C00F3E70026EDE720212846013CFFF76BFE0C
:10A92C00DDE74E46DBE72846FFF765FE19F8011F09
:10A93C000029F8D130E703B0BDE8F08F2DE9F047DE
:10A94C00B0F806904479D2F800A09DF8208009FB5D
:10A95C0004F4043C06460AEB0300A0420F4688BFF1
:10A96C00A4EB030A191DC2F800A0B1FBF9F509FB11
:10A97C0015114DB9A9EB0104544528BF5446BAF141
:10A98C00000F04D1BDE8F0873668013DF1E70431D2
:10A99C007B1970182246B8F1000F0ED001461846EC
:10A9AC00AAEB040A01F0DDFED145254436684C467D
:10A9BC004FF0000128BF5446E1E71946F0E7FFF7D6
:10A9CC00ACBDF8B546790146721E0546002393428C
:10A9DC002D6803D30024A64202D8F8BD0133F6E754
:10A9EC000F682846FFF7D4FD01343946F3E72DE90B
:10A9FC00F843068ACD1C0746FFF7A6FD043E3544F6
:10AA0C000446B5FBF6F5F0B14FF48073EDB28380DC
:10AA1C00C680013D076081464FF00008A84512D260
:10AA2C003846FFF791FD064648B1637901336371EF
:10AA3C0008F10108C9F8000007608146EEE72046DE
:10AA4C00FFF7BFFF34462046BDE8F88301210430F0
:10AA5C00FFF747BD10B5012104460430FFF74CFD4C
:10AA6C0010F0FF0F04D12046BDE81040FFF7A9BF3E
:10AA7C0010BD1FB503920022009203AAFFF75EFFE0
:10AA8C0005B05DF804FB1FB503920122009203AAE6
:10AA9C00FFF754FF05B05DF804FB41DF7047000081
:10AAAC00064B10B500241C70054B1C60BFF35F8F68
:10AABC000449054800F01FF8204610BD94210020E1
:10AACC00982100205CCB01008C21002008B501F0FE
:10AADC0089FC18B1BDE80840FFF7DFBF20BF40BFBD
:10AAEC0020BF08BD836800225A609A60C3E9042223
:10AAFC00DA601A6070470B684A684360934208BF7B
:10AB0C000023016008BF43607047436843B102688B
:10AB1C00916852680B449342436004BF0023436026
:10AB2C00704770B5446806460D46206818B1B36886
:10AB3C002946984718B923682B60256070BD246896
:10AB4C00F3E74368186808B102681A6070474368F5
:10AB5C00186870474368186800B97047884203D179
:10AB6C0002681A600120704703460068F4E7000091
:10AB7C0010B50D49A1F59472914201D800200FE057
:10AB8C008B1ADB1003EBD3735B1002EBC30452F88C
:10AB9C003330834205D802D204F10802ECE7606836
:10ABAC0010BD2146E8E700BFB8CC010008B5FFF79F
:10ABBC00DFFF024B002808BF184608BD7ACB010006
:10ABCC00034B1868A0F10E0358425841704700BF60
:10ABDC003001001008B5FFF7F3FF28B1574B584A66
:10ABEC001B68C3F342331360FFF7EAFF40B14FF029
:10ABFC0080430022C3F80C21C3F81021C3F8382578
:10AC0C00FFF7DEFF002846D04FF080524D4BD2F8B4
:10AC1C000414C3F82015D2F80814C3F82415D2F87C
:10AC2C000C14C3F82815D2F81014C3F82C15D2F84C
:10AC3C001414C3F83015D2F81814C3F83415D2F81C
:10AC4C001C14C3F84015D2F82014C3F84415D2F8DC
:10AC5C002414C3F84815D2F82814C3F84C15D2F8AC
:10AC6C002C14C3F85015D2F83014C3F85415D2F87C
:10AC7C003414C3F86015D2F83814C3F86415D2F83C
:10AC8C003C14C3F86815D2F84014C3F86C15D2F80C
:10AC9C004424C3F87025FFF793FF48B14FF080436D
:10ACAC00D3F80024D20744BF6FF00102C3F800248C
:10ACBC00FFF786FF20B1244A136843F00F0313609B
:10ACCC004FF01023D3F80022002A03DBD3F8043210
:10ACDC00002B2FDA1D4B0122C3F80425D3F80024D6
:10ACEC00002AFBD04FF010221521C2F80012D3F825
:10ACFC000024002AFBD04FF010231522C3F80422A5
:10AD0C00124B1A46D3F800140029FBD00021C3F8CB
:10AD1C000415D2F80034002BFBD0BFF34F8F0C4935
:10AD2C000C4BCA6802F4E0621343CB60BFF34F8F45
:10AD3C0000BFFDE7084B094A1A6008BD4402001029
:10AD4C003C05004000C00040E40E004000E0014023
:10AD5C0000ED00E00400FA05F01A00200090D0038A
:10AD6C0038B5074C051E04F1080318BF1C462368B0
:10AD7C002BB11A6822605B6828469847F7E738BD04
:10AD8C00A421002020B9054B01225A70FFF7E8BF1F
:10AD9C00012802D1014A9070F8E770479C210020ED
:10ADAC0020B9034B01225A70FFF7DABF704700BF7E
:10ADBC009C21002038B50E4C2378B3B90D48636044
:10ADCC00A3602361E36000F073F8054601F00AFB11
:10ADDC0008B900F079F801232370074BD3F800343D
:10ADEC000BB10123A370284638BD8525F5E700BFBC
:10ADFC009C21002091AD01000000014037B50D4CA5
:10AE0C0000230DF107008DF80730FFF727F9E368F1
:10AE1C00013BE360E36833B9074BD3F8005415B931
:10AE2C0000F064F8A5709DF80700FFF73BF903B03C
:10AE3C0030BD00BF9C21002000000140012813B54B
:10AE4C000DD018B1032820D002B010BD114B012237
:10AE5C00C3F88020BFF34F8FBFF36F8FF4E70E4C16
:10AE6C0000230DF107008DF80730FFF7F7F8237872
:10AE7C000BB9FFF79FFFE3689DF807000133E36010
:10AE8C000123A370FFF70EF9DEE700F01DF8FFF7C2
:10AE9C00B5FFD9E700E100E09C21002000F18040E3
:10AEAC00002382B0036003680193019B02B07047DA
:10AEBC00044A137923B901211060117118467047A7
:10AECC0085207047B0210020074B1A68D20704D4A4
:10AEDC00C02283F8002301221A604FF08043022223
:10AEEC00C3F81825704700BF00E100E04FF0804226
:10AEFC0008B50223C2F808334FF48270FFF7CEFF77
:10AF0C00034B01211960D2F81834DB03FBD408BDC4
:10AF1C000C000040114B1B6810B563B14FF48070EE
:10AF2C00FFF7BCFF4FF080430122C3F808230C4B02
:10AF3C0000201B6898470B4B1B6873B14FF4827051
:10AF4C00FFF7ACFF4FF080430222C3F80823044BF9
:10AF5C0001201B68BDE81040184710BD00010040DF
:10AF6C00B02100200401004000F1804000F5C040F9
:10AF7C00002382B0036003680193019B02B0704709
:10AF8C00800000F1A040D0F8003723F44033C0F823
:10AF9C000037D0F8003743EA0141C0F8001770477A
:10AFAC002DE9F34700244C4D01944FF4807201219C
:10AFBC0002F1804303F5C04390B21B68012B06D10C
:10AFCC00D5F804330B4202D0FFF7CEFF0C4304320A
:10AFDC00B2F5907F4FEA4101EAD1404B1B68012B3F
:10AFEC000CD14FF4BE70FFF7BFFF4FF0A04344F0FD
:10AFFC000044D3F820250192C3F8202514F0FF0F4C
:10B00C001AD0374F00250126344210D0AB0003F183
:10B01C00804303F5C043D3F81005D3F8101557F847
:10B02C00253023B1C1F30141C0F304209847013509
:10B03C00082D4FEA4606E7D1002C46DA284F4FF090
:10B04C00A046DFF8A0804FF0000A4FF0010918F974
:10B05C00011B4B1C2DD0CAB222F0C00402AB03EB77
:10B06C00D40313F8041C02F0070309FA03F3194282
:10B07C001FD004F5E073204656F82350C5F3014564
:10B08C00022D0CBF03210221FFF77AFF09FA04F30A
:10B09C00C6F820353B1993F9303057F8233043B1BB
:10B0AC009109032903D0022D12D1012901D1204687
:10B0BC0098470AF1010ABAF1040FC8D1D6F8203525
:10B0CC000193C6F82035002BBBD102B0BDE8F08748
:10B0DC00032DEED10229E9E7006000407C610040BD
:10B0EC00B821002008220020014B1B68184700BF24
:10B0FC001422002072DF704773DF704776DF7047D1
:10B10C007ADF70477CDF70477FDF70478FDF7047D7
:10B11C00B1DF70477047FEF7ADBD000008B5054BB9
:10B12C0001211878FFF7E8FF18B1BDE80840FEF7D9
:10B13C00A1BD08BD041B00200388212B13B50446B8
:10B14C0045D01DD8112B26D0132B36D0102B32D135
:10B15C00274B28482849C01AC008000440F00300B7
:10B16C00FEF722FC254BA1882548198000F0D2FF60
:10B17C00044600B3FEF77EFD2046FEF77BFD1AE089
:10B18C00522B2CD0562B01D03B2B14D11321A08841
:10B19C00FFF7B4FF18E0164B16481A49C01AC0083E
:10B1AC00000440F00300FEF7FFFB144B4FF6FF7258
:10B1BC001A80FFF7B3FF02B010BD104800231A46E7
:10B1CC0085210088FFF7A0FF0028F4D0D5E70023E5
:10B1DC0001A98088ADF80430FFF798FFF4E7074821
:10B1EC0000231A4619460088FFF792FFECE700BFD0
:10B1FC0030C9010058C9010094D00100061B002081
:10B20C00842200209ED0010008B503784BB9054B71
:10B21C003B211888FFF772FF18B1BDE80840FEF714
:10B22C0029BD08BD061B0020FEF724BD00B54FF458
:10B23C008041A7B00020FEF717FA08B1FEF71AFDFF
:10B24C00FEF752F9FEF7DEFD08B1FEF713FDFFF72E
:10B25C0027FC08B1FEF70EFD01F086F808B1FEF7E9
:10B26C0009FD002317A90120179301F005F908B176
:10B27C00FEF700FD17A801F0ADF908B1FEF7FAFCD6
:10B28C00112365488DF8203001F0E9FA624982B249
:10B29C0008A8FFF737FF08B1FEF7ECFC08220021E5
:10B2AC0017A801F087FA5D4A4FF0C87317A8CDE9CB
:10B2BC001723FFF725FF08B1FEF7DCFC00215848E7
:10B2CC0000F053FE08B1FEF7D5FC0023089317A934
:10B2DC00544B5548179300F00BFF08B1FEF7CAFC0E
:10B2EC00524B5348089308A900F086FF08B1FEF7AB
:10B2FC00C1FC41F22353ADF804304D4B4D4C9B7CBB
:10B30C008DF806303C22002108A801F053FA0223E4
:10B31C008DF820303C2240F20163002117A8ADF8D3
:10B32C00223001F047FA22460123ADF86C3052F876
:10B33C00041B01AB08A81C9300F0BEF908B1FEF782
:10B34C0099FC3D4AA16817A800F0B6F908B1FEF7C0
:10B35C0091FC1822002102A801F02CFA00230122F2
:10B36C00ADF8143003934FF480738DF80820ADF8CA
:10B37C001C3002AA40232F4930480493FFF7BAFE31
:10B38C0008B1FEF777FC1C22002117A801F012FA75
:10B39C0000234FF4A022CDE91732ADF86A304FF4F8
:10B3AC00A0328DF86C30264B19921C930322254B3E
:10B3BC008DF8682017A81D9300F048FC08B1FEF723
:10B3CC0059FC214B214C2249E41AE408240444F092
:10B3DC0003044FF0A0452046FEF7E6FA0323C5F818
:10B3EC0018371C4920464026FEF7DEFA1A49C5F8E4
:10B3FC0008652046FEF7D8FA1849C5F80C652046B2
:10B40C00FEF7D2FAFFF78AFEFEF77EF90028FBD191
:10B41C00FFF75CFBF8E700BFABD001005000A000C9
:10B42C005C22002023B101008422002021B1010004
:10B43C006C220020F41A0020001B0020041B0020AA
:10B44C0015B2010035B2010030C9010058C9010024
:10B45C00B5D00100C2D00100D3D00100E9D0010069
:10B46C000369C1688B429DBF8268D21802F1FF321A
:10B47C0003F1FF3394BF501A581A70472DE9F0416D
:10B48C00D0E9027405463E1B40689642204488462B
:10B49C00144404D901F065F9EC60BDE8F081324642
:10B4AC00E41B01F05EF9224608EB06016868F1E73F
:10B4BC002DE9F843C5680646894617464FF0000843
:10B4CC003469B3687068A54228BFE418013C621B5C
:10B4DC005C1BBC4228BF3C46944228BF14464946DC
:10B4EC002844224601F03DF9B3682544AB4208BF1D
:10B4FC0000253F1BA044A144F560E1D14046BDE8C6
:10B50C00F883000010B5114C114AA2610223C4E962
:10B51C000433104BE361A2644FF400730E4A2362B0
:10B52C00E264002310220D49A362E01D6362E36212
:10B53C00A3656365E365226501F06FF90849204650
:10B54C0001F06BF92023A37110BD00BF90220020E5
:10B55C00FCD00100182300200823002005D1010095
:10B56C0009D10100F8B5184C182300FB033503FB77
:10B57C0000402544C46A012C0F46164611D024B154
:10B58C00022C1BD000242046F8BD2846FFF768FF8C
:10B59C00B042F8D3324639462846FFF76FFF34469F
:10B5AC00F1E72846FFF75CFF8642344628BF044685
:10B5BC00224639462846FFF761FFE4E72846BDE8F6
:10B5CC00F840FFF775BF00BF90220020FFF79ABF2D
:10B5DC006DDF704779DF70477DDF704764DF704740
:10B5EC002DE9F74F0C9CBDF834B027880025804618
:10B5FC008A4691462E46B8F80020B2420BDC35B193
:10B60C002288013AD21B92B2FF2A39D8DA5500208F
:10B61C0003B0BDE8F08FD8F8042052F82600019052
:10B62C0000220DF1030101A8FFF7D8FF0028EFD18C
:10B63C009DF803204A4521D12288002D14BF0020FB
:10B64C00022002EB09010144594519DC3DB90132D4
:10B65C0092B2228003F802A0228801322280228832
:10B66C000DF103011A4401A8FFF7B8FF0028CFD150
:10B67C0021889DF803200A44228001250136BAE76F
:10B68C000C20C5E72DE9F341089CBDF82450174662
:10B69C00CDE9004502220646FFF7A2FF48B9102269
:10B6AC0039463046CDE9084502B0BDE8F041FFF718
:10B6BC0097BF02B0BDE8F0812DE9F04F002316884A
:10B6CC00138090F82D3085B007460D46144653B3C1
:10B6DC00082E01D80C2028E102A8FFF779FF0028DA
:10B6EC0040F0238113880822CA54238801339BB26B
:10B6FC001B222380CA542088013080B2208006226D
:10B70C000DF10901284401F02CF823889DF808203C
:10B71C0006339BB212F0FE0218BF01222380EA54BA
:10B72C00238801332380BB78FBB123880433B342D5
:10B73C00D0D802A8FFF74EFF002840F0F6802388EF
:10B74C000322EA54238801339BB219222380EA5442
:10B75C002388BDF8082001339BB2E9182380EA54F2
:10B76C00120A4A70238802332380FA789AB123880C
:10B77C00D91CB142AED80221E954238801339BB2C3
:10B78C0001212380E95423880B449BB22380EA5483
:10B79C0023880B4423807A68AAB12388D91CB14230
:10B7AC0098D8022192F90020E954238801339BB2E6
:10B7BC000A212380E954238801339BB22380EA5465
:10B7CC002388013323803B89002B40F0A2803B8AE5
:10B7DC005BB1CDE900462B460722032107F110008F
:10B7EC00FFF750FF002840F0A0803B8B5BB1CDE908
:10B7FC0000462B461522142107F11800FFF742FFD3
:10B80C00002840F092803A6A002A40F09180D7F8E4
:10B81C002480B8F1000F30D0B8F804302188981C7F
:10B82C008A1C0244B2423FF655AFFE283FF652AF97
:10B83C0003336B54238801339BB2FF222380EA54D9
:10B84C00238801339BB22380B8F80020EA54E9180E
:10B85C00120A4A702088023080B22080B8F8042086
:10B86C005AB1D8F8081000296CD0284400F079FFA0
:10B87C002388B8F804201344238097F82C30002B2D
:10B88C0040F09B80387800284FD03B88012B59D052
:10B89C00228802F1020CB4453FF61CAF012805D1F9
:10B8AC007B78023313449E42FFF414AF023EB61A67
:10B8BC00B6B202A905EB0C00ADF80860FFF78CFEE0
:10B8CC0098BB3978BDF80820022900F0BB807B7842
:10B8DC00934202D3B24240F2B380012940F0B480CB
:10B8EC009BB29E42C0F0B080ADF808300821BDF884
:10B8FC000830FE2B3FF6EEAE22880133AB54228883
:10B90C00013292B22280A954228813442380002051
:10B91C000BE0CDE900462B460622022107F1080078
:10B92C00FFF7B0FE00283FF452AF05B0BDE8F08F32
:10B93C00B4F800C00CF10603B3423FF6CBAE11884D
:10B94C00052901D80720F0E76FF4486E01EB0E03D0
:10B95C009BB24FF27D3E7345F4D95388052BF1D938
:10B96C006FF44860181880B27045EBD94FF6FF7031
:10B97C00814203D0834201D09942E3D8052305F8D4
:10B98C000C30238801339BB212212380E954238885
:10B99C0001339BB223801188E954E818090A4170DD
:10B9AC00238802339BB223805288EA54E918120A86
:10B9BC004A7023880233238029E7BB6A002BC1D04D
:10B9CC004FF000094FF00C0A4FF0160B97F82C3083
:10B9DC005FFA89F293427FF655AFB96A0AFB02F21D
:10B9EC0001EB0208B8F80430981CFE283FF672AE42
:10B9FC00208803332B54238801339BB2238005F812
:10BA0C0003B0238801339BB223808A5AEA54E91885
:10BA1C00120A4A702088023080B22080B8F80420C4
:10BA2C005AB1D8F8081000298CD0284400F099FE9F
:10BA3C002388B8F804201344238009F10109C5E7D1
:10BA4C00092154E7B242FBD9ADF808604EE775DF27
:10BA5C00704776DF70477ADF70477BDF70470000F6
:10BA6C00034B1A8882420CBF18460020704700BF57
:10BA7C0034250020024B9B6903B11847704700BF67
:10BA8C001825002037B585B22846FFF7E9FF034695
:10BA9C0070B1164C017A227B91420BD200F10A0153
:10BAAC002846FFF7D4FFE8B1112801D0FFF7E2FFD9
:10BABC0003B030BD237C0022027243B13B212846E7
:10BACC00FFF7C7FF30F0080301D0FFF7D3FF63691E
:10BADC00002BEDD000228DF80420ADF8065001A803
:10BAEC009847E5E71A7A01321A72E1E71825002027
:10BAFC0013B50B46497A0F4C024669B9D4E90110CB
:10BB0C001C7A002C18BF01465868FEF7B8F908B12A
:10BB1C00FFF7B0FF02B010BD002119726369002B52
:10BB2C00F8D00121ADF806008DF8041001A8984753
:10BB3C00F0E700BF182500204B8802889A4213D8E2
:10BB4C0042889A4210D380888A8840F2F313984234
:10BB5C0094BF031AC31A934206D800F2F310904212
:10BB6C0034BF002001207047002070470388112B40
:10BB7C0070B5014648D002D8102B1ED070BD122BC8
:10BB8C0052D0502BFAD12F4BC288DB899A42F5D177
:10BB9C00038A022BF2D186883046FFF761FF0546F7
:10BBAC000028EBD001F1120000F033F930BB6868CB
:10BBBC00FEF77DF90028E1D009E0C37B012BDDD134
:10BBCC004FF6FF70FFF74CFF054620B90420BDE887
:10BBDC007040FFF74FBF1C4A8E880680002303720B
:10BBEC001368C5F80A300A30536843601031FFF708
:10BBFC00A3FF144B6872DB89002BBFD1294630465A
:10BC0C00BDE87040FFF774BF8088FFF729FF04463A
:10BC1C000028B3D04068FEF74AF908B1FFF72AFFB5
:10BC2C004FF6FF732380A9E786883046FFF718FF8D
:10BC3C0005460028A2D008310A30FFF77DFF687254
:10BC4C00DCE700BF1825002048250020F8B5064683
:10BC5C0048B305460FCD154F3C460FC495E8070079
:10BC6C0084E807003068124B3B60B0B1FFF7F3FE7D
:10BC7C00C0B931680A681A604A685A600D480E4AA1
:10BC8C004FF6FF7303800D4B40F8043F0021FEF785
:10BC9C00EBF8002818BF032004E01846FFF7DDFE80
:10BCAC000028EBD0F8BD0E20FCE700BF18250020C3
:10BCBC00482500203425002091BA01005025002091
:10BCCC000AB1FEF7C7BBFEF7CEBB73B50191019C61
:10BCDC0006466CB100252C46294601A8FEF7CDFB83
:10BCEC0018B106EB440301349D800135142DF3D1BA
:10BCFC003046346002B070BD2DE9F043038884886F
:10BD0C00103B8DB00A2B1ED8DFE803F006361D1D44
:10BD1C001D1D1D1D1D563B002C4DAB68DB430093B8
:10BD2C0069686846FEF7D2FB009901A8FFF7CDFFC2
:10BD3C000DF108080027019B9F4207D3132C12D941
:10BD4C000420FDF797FF0DB0BDE8F08338F8029B97
:10BD5C0000260136494605EB8600FEF784FB1E2EB5
:10BD6C00F7D10137E7E721461948FEF773FB214667
:10BD7C001848FEF76FFBE6E721461548FEF773FB04
:10BD8C00E1E7057A14482D09032D94BF0022012206
:10BD9C002146FFF795FF022D94BF00220122214678
:10BDAC000E48FFF78DFF012D0D4894BF0022012294
:10BDBC002146FFF785FFC6E7037A002BC3D1427AF1
:10BDCC000548C2F3C0022146F3E700BF70250020EE
:10BDDC00782500207425002088250020842500204B
:10BDEC0080250020AADF7047002301380B7004283F
:10BDFC0006D8DFE800F00306080A0C0011230B70CC
:10BE0C0070472123FBE73123F9E71223F7E72223BD
:10BE1C00F5E7007800F001007047F0B58B7891B031
:10BE2C00002B0C4608BF01238DF80E3005460B88FD
:10BE3C00ADF80C30002116466846032200F0BAFC1F
:10BE4C006946607CFFF7D0FF0DF10101A07CFFF784
:10BE5C00CBFF9DF80230E27B62F3C303227C62F3DA
:10BE6C000413227B62F30003227D002A14BF0222FA
:10BE7C00012262F3420300211C2209A88DF8023032
:10BE8C0000F098FC637B13F0300F15D002AF032247
:10BE9C000021384600F08EFC0DF10901E07CFFF723
:10BEAC00A3FF11238DF808309DF80A300E9701225C
:10BEBC0062F342038DF80A30637B8DF82430142230
:10BECC00A37B8DF82530002104A800F073FC03AB94
:10BEDC000493A388ADF81C30A368CDF814D01BB123
:10BEEC00E288ADF818200893A369002B2ED001AF7F
:10BEFC0003220021384600F05DFCA3691A88ADF8D6
:10BF0C002C205A88187BADF82E2039465A680A9294
:10BF1C000D97FFF769FFA3690DF10501587BFFF73A
:10BF2C0063FFA2699DF80630917A61F3C303D17A5D
:10BF3C0061F30413117A927B002A61F3000314BF9E
:10BF4C000222012262F342038DF80630E36903B149
:10BF5C000C93334604AA09A92846FFF743FF11B0F6
:10BF6C00F0BDA5DF7047B5DF704750B14FF0171328
:10BF7C0003601B2303711723C160C38083600020FF
:10BF8C0070470E207047000013B5034680880C469E
:10BF9C0080B91A88112A60D00ED8102A3AD0A37A08
:10BFAC0043B1E1880020FFF7DCFF002871D14FF48A
:10BFBC008073638102B010BD3A2A52D0552AEED15B
:10BFCC00DB88C988A072172B38BF17238B4228BF78
:10BFDC000B462381FFF7C7FF60B1FEF7E7FD354A3B
:10BFEC00354B36499B1ADB081B04024643F0010013
:10BFFC00FDF7DEFCE37A002BD1D1E368002BCED029
:10C00C0040F6772200922289ADF80420694620463A
:10C01C009847C4E7DB7B012B04BF0B88CB80C98816
:10C02C0023898B42BBD20020FFF79BFF10B9012361
:10C03C00E372B4E7112802D10123A372AFE7FEF734
:10C04C00B5FD1C4A1C4B1E499B1ADB081B040246FF
:10C05C0043F00100FDF7ACFCA1E71723CB808B600C
:10C06C009DE75B89CA88934228BF1346172BCA6881
:10C07C0038BF17230B814AB1C97A39B140F6772101
:10C08C000091ADF804306946204690470023638147
:10C09C0085E711288ED0FEF789FD064A064B084924
:10C0AC009B1ADB081B04024643F00100FDF780FCE1
:10C0BC0080E700BF30C9010078C9010041D10100FF
:10C0CC0010D10100B0DF704766DF7047034610B532
:10C0DC0000214088FFF7F8FF024608B91A7210BD1C
:10C0EC00112801D10122F9E75B68BDE8104018471F
:10C0FC0060B159B10378DE2B0AD00B684360DE23A4
:10C10C0003704FF6FF734380002070470E2070477A
:10C11C000820704728B10378DE2B04D14180002021
:10C12C0070470E20704708207047F0B5054685B063
:10C13C000C46F1B1E8B10B78DE2B1AD182884B8812
:10C14C009A4204D10B7A13B10846FFF7BFFF2B8834
:10C15C00112B32D0512B0ED0012B0AD12B7A012B63
:10C16C0007D1A9886288914203D123722046FFF738
:10C17C00ADFF05B0F0BDAE886388B342F9D1AF799D
:10C18C00022FF6D1AD7B2B1F022BF2D800211022EF
:10C19C00684600F00FFB052D14BF4FF4C07300234D
:10C1AC00694630468DF80070ADF80430FFF78AFF11
:10C1BC000028DED063689847DBE76388AA889A4238
:10C1CC0004BF4FF6FF736380D3E7A8DF704762DFCD
:10C1DC0070470288502A10B40CD1C4884A88944203
:10C1EC0008D1028A012A05D14B691BB1827C10BC93
:10C1FC008088184710BC7047F0B50B6843618FB04E
:10C20C00334B02AA044603F1100716461868596806
:10C21C00154603C50833BB422A46F7D104F1120177
:10C22C003046FFF7D4FF00284FD1A37C8DF80630A1
:10C23C00224641F2235301A90120ADF80430FFF747
:10C24C00C4FF002841D10146202206A800F0B2FA12
:10C25C0041F22453ADF81830A37C8DF81A309DF8B8
:10C26C002530224623F0120301254FF0011643F02E
:10C27C00120332F80A0B079606A98DF825308DF8B3
:10C28C0029508DF82B50FFF7C8FDF0B9014620223C
:10C29C0006A800F08FFA41F22553ADF81830A37CB4
:10C2AC008DF81A309DF825300796224623F00A03A4
:10C2BC0043F00A0332F8020B8DF8253006A98DF8ED
:10C2CC0029508DF82A50FFF7A8FD0FB0F0BD00BF24
:10C2DC007DD1010010DF704713B50446094968464B
:10C2EC00FEF709FC019808B902B010BDD0E9003185
:10C2FC002046984718B16846FEF707FCF2E7112074
:10C30C00F2E700BF94D1010013B504460749684613
:10C31C00FEF7F1FB019B0BB902B010BD2046D3E92F
:10C32C00002190476846FEF7F0FBF3E7ACD1010023
:10C33C000B4991F816335A09EC231341DB0706D548
:10C34C00084B9A683AB94FF480030B60704742F27D
:10C35C000200FDF78FBC1A6842F480021A60704725
:10C36C0000E100E074210020F7B5194F3C7864BB64
:10C37C00184E012520463570FFF7AEFF112821D04D
:10C38C002046FFF7C1FF144B8DF80340186801904D
:10C39C000DF10300FDF762FE104901A8FFF79AFFAB
:10C3AC000446B0FA80F0400938709DF80300FDF7A0
:10C3BC0079FE3CB90A4B34701C70FFF7B9FF284664
:10C3CC00FFF7A2FF204603B0F0BD0824FAE700BF38
:10C3DC00ED250020EC2500208DD101009D9C010055
:10C3EC00EE250020014B1878704700BFED2500208A
:10C3FC0007B508496846FEF77EFB019B13B903B0ED
:10C40C005DF804FBD3E9002090476846FEF77DFBFE
:10C41C00F3E700BFA0D10100FFF7EABF60DF704770
:10C42C0069DF704761DF704730B5114B1B7891B0F5
:10C43C00E3B1104D34240DF1020103A8ADF8024014
:10C44C00FFF7F0FF70B9294601A8FEF754FB029BD9
:10C45C00002BF0D003A8D3E90021904701A8FEF7E8
:10C46C0054FBF4E7052801D0FDF704FC11B030BDF6
:10C47C00EF250020ECD3010030B5054685B00C4605
:10C48C00002900F094804B4B0B600C22002101A87A
:10C49C0000F090F901238DF8063022688DF80450D5
:10C4AC00062301A92020ADF80830FFF7B9FF60B1D1
:10C4BC00FEF77CFB404A414B41499B1ADB081B04AD
:10C4CC00024643F00100FDF773FA0C22002101A88B
:10C4DC0000F070F9012322688DF8053001A9402085
:10C4EC00FFF79EFF60B1FEF761FB334A334B3549D2
:10C4FC009B1ADB081B04024643F00100FDF758FAB7
:10C50C000C22002101A800F055F90A2322688DF8AD
:10C51C00043001A90120FFF783FF60B1FEF746FB51
:10C52C00254A264B28499B1ADB081B04024643F07C
:10C53C000100FDF73DFA0C22002101A800F03AF9A8
:10C54C004FF4B0632268019301A9A120FFF768FFA3
:10C55C0060B1FEF72BFB184A184B1C499B1ADB08E1
:10C56C001B04024643F00100FDF722FA0C220021C5
:10C57C0001A800F01FF99DF8043022686FF3000346
:10C58C0001A9A0208DF80430FFF74AFF68B1FEF72F
:10C59C000DFB094A094B0E499B1ADB081B0402468A
:10C5AC0043F00100FDF704FA002005B030BD0E2069
:10C5BC00FBE700BFE01A002030C9010088C9010068
:10C5CC00C0D1010006D2010052D201009ED201005E
:10C5DC00EFD20100F8B506460768FFF71FFF336876
:10C5EC00BB4205461DD9194B194C1A49E41AE408EB
:10C5FC00240444F002042046FDF7D6F933681649AA
:10C60C003A462046FDF7DDF94FF080533268D3F8F7
:10C61C000C3112499B0203F100539A1A2046FDF784
:10C62C00C7F925B90E4B01221A702846F8BD2846C9
:10C63C00FEF7BCFA054A064B0A499B1ADB081B0499
:10C64C00024643F00100FDF7B3F9EEE730C90100F3
:10C65C0088C9010042D3010071D30100A2D30100AB
:10C66C00EF250020CCD301004BDF70471FB50D4CDC
:10C67C0001A8FFF7F9FF70B9214602A8FEF73BFAB3
:10C68C00039B002BF4D00198D3E90021904702A81A
:10C69C00FEF73BFAF4E7052801D0FDF7EBFA04B0FE
:10C6AC0010BD00BF04D401007F2805D8034B185CD3
:10C6BC00034B5B5C18407047002070471CD4010092
:10C6CC009CD40100A0F16103192B98BF203870474E
:10C6DC00A0F14103192B98BF203070477F2805D853
:10C6EC00034B185C034B5B5C184070470020704791
:10C6FC001CD401009CD40100A0F16103192B98BF3C
:10C70C0020387047A0F14103192B98BF2030704797
:10C71C007F2902D80170012070476FF02E007047FE
:10C72C005AB10A787F2A0AD800B102600021196038
:10C73C005960501A18BF01207047002070476FF0E5
:10C74C002E00704708B5034B5B689B681B689847C5
:10C75C0008BD00BF081B002008B50921FFF7F2FF38
:10C76C0008BD844640EA010313F0030F18D1844638
:10C77C00202A0BD32DE9F007B1E8F807A0E8F80759
:10C78C00A2F12002202AF7D2BDE8F007042A07D331
:10C79C0051F8043B40F8043BA2F10402042AF7D2FE
:10C7AC00002A05D011F8013B00F8013B013AF9D100
:10C7BC00604670478446002A2DD010F0030F04D039
:10C7CC0000F8011B013A26D0F7E7C9B241EA012172
:10C7DC0041EA0141202A12D3A2F120022DE9F003F3
:10C7EC000B460C460D460E460F4688468946A0E879
:10C7FC00FA03203AFBD2BDE8F00320320BD0042A16
:10C80C0005D340F8041B043A05D0042AF9D200F8E9
:10C81C00011B013AFBD160467047024610F0030F32
:10C82C0016D111F0030F13D12DE9F0004FF00137A1
:10C83C004FF0803351F8044BA4EB070525EA0405AF
:10C84C001D4002D142F8044BF4E7A1F10401F0BC05
:10C85C0011F8013B02F8013B002BF9D1704700F1B4
:10C86C00010110F0030F11D010F8012B002A23D076
:10C87C0010F0030F0AD010F8012B002A1CD010F076
:10C88C00030F03D010F8012B002A15D02DE97000EE
:10C89C004FF001324FF0803350F8044BA4EB0205FB
:10C8AC0025EA04051D4000D1F6E7A0F1040070BC98
:0EC8BC0010F8012B002AFBD1A0EB0100704701
:08C8CC00ADAD01000000000009
:10C8D40005BD01000000000095BF01005C2200209E
:10C8E40079BB01000000000037C101008422002050
:10C8F400DFC101006C22002045B1010000000000EE
:08C9040049AE01000000000033
:10C90C0035C401000000000079C6010000000000E1
:10C91C00601B0020281C0020301C0020681B0020FD
:04C92C0018000000EF
:10C9300078D00100000000007ED00100000000005F
:10C9400085D001000000000089D001000000000037
:10C950008ED001000000000001CA010000000303A6
:10C96000CFCA01000000000004CB0100000000005D
:10C9700072D001000000000070D10100000003032C
:10C98000B8D1010000000303F8D301000000030345
:10C9900010D401000000030368CB01000000000078
:08C9A00071CB01000000000052
:10C9A800C8C9010000000000D4C90100E01A002035
:10C9B80000000000000000000738FDD870470000A4
:10C9C800C19301002D940100BD9301007274745F3E
:10C9D8006C6F675F6261636B656E64005020002056
:10C9E8007F000000D02000204261636B656E647395
:10C9F80020666C75736865640061707000000000E3
:10CA08003BCA010084CA010043CA01008CCA010064
:10CA180094CA01009CCA0100A4CA0100ACCA010062
:10CA2800B4CA0100202530327800202020007C0084
:10CA38002563001B5B306D002573001B5B313B33A6
:10CA4800316D0025734C6F67732064726F70706569
:10CA580064202825642925730D0A003C25733E208F
:10CA680025733A200000000000000000E0CA010021
:10CA7800BCCA0100C4CA0100C9CA01001B5B313B22
:10CA880033306D001B5B313B33326D001B5B313B38
:10CA980033336D001B5B313B33346D001B5B313B23
:10CAA80033356D001B5B313B33366D001B5B313B0F
:10CAB80033376D007761726E696E6700696E666FF5
:10CAC800006465627567006170705F627574746F89
:10CAD8006E00466174616C206572726F72005379E2
:10CAE8007374656D2072657365740000010006003B
:10CAF80000000000E82000200D9D01006170705FBB
:10CB080074696D65720000000738FDD8704752548B
:10CB18004320696E7374616E636520616C72656130
:10CB2800647920696E697469616C697A65642E003C
:10CB38005254433A20696E697469616C697A656414
:10CB48002E00303132333435363738394142434498
:10CB580045460000D4C80100D4C801000400000004
:10CB68007077725F6D676D7400736F72746C697340
:10CB78007400556E6B6E6F776E206572726F7220DF
:10CB8800636F64650000000000000000B8CC01007D
:10CB980001000000C4CC010002000000E2CC01004A
:10CBA8000300000003CD01000400000016CD0100C1
:10CBB8000500000027CD0100060000003BCD010064
:10CBC8000700000053CD0100080000006BCD0100F4
:10CBD8000900000083CD01000A0000009CCD01007F
:10CBE8000B000000B4CD01000C000000CBCD01000B
:10CBF8000D000000DFCD01000E000000F1CD0100A6
:10CC08000F00000000CE01001000000014CE01004B
:10CC1800110000002BCE0100120000003ACE0100E6
:10CC2800130000004FCE01008000000063CE010019
:10CC38008100000084CE010082000000A0CE010027
:10CC480083000000BCCE010084000000DACE0100A1
:10CC580085000000FBCE01008600000020CF010007
:10CC68009000000037CF01009100000055CF01006F
:10CC78009200000073CF01000082000088CF0100FD
:10CC880001820000A6CF010002820000C2CF01008D
:10CC980000840000DECF01000184000002D0010002
:10CCA800028400002CD001000384000051D0010050
:10CCB8004E52465F53554343455353004E52465FC9
:10CCC8004552524F525F5356435F48414E444C457C
:10CCD800525F4D495353494E47004E52465F4552A5
:10CCE800524F525F534F46544445564943455F4E51
:10CCF8004F545F454E41424C4544004E52465F45B5
:10CD080052524F525F494E5445524E414C004E527A
:10CD1800465F4552524F525F4E4F5F4D454D004E54
:10CD280052465F4552524F525F4E4F545F464F55E1
:10CD38004E44004E52465F4552524F525F4E4F543A
:10CD48005F535550504F52544544004E52465F452C
:10CD580052524F525F494E56414C49445F504152DE
:10CD6800414D004E52465F4552524F525F494E5612
:10CD7800414C49445F5354415445004E52465F4527
:10CD880052524F525F494E56414C49445F4C454EB2
:10CD9800475448004E52465F4552524F525F494EE3
:10CDA80056414C49445F464C414753004E52465FFA
:10CDB8004552524F525F494E56414C49445F444197
:10CDC8005441004E52465F4552524F525F444154BF
:10CDD800415F53495A45004E52465F4552524F52A1
:10CDE8005F54494D454F5554004E52465F45525287
:10CDF8004F525F4E554C4C004E52465F4552524F73
:10CE0800525F464F5242494444454E004E52465F97
:10CE18004552524F525F494E56414C49445F414436
:10CE28004452004E52465F4552524F525F4255534C
:10CE380059004E52465F4552524F525F434F4E4E35
:10CE48005F434F554E54004E52465F4552524F5223
:10CE58005F5245534F5552434553004E52465F4526
:10CE680052524F525F4D4F44554C455F4E4F545FA1
:10CE7800494E495449414C495A4544004E52465F2F
:10CE88004552524F525F4D555445585F494E49548B
:10CE98005F4641494C4544004E52465F4552524F09
:10CEA800525F4D555445585F4C4F434B5F4641497F
:10CEB8004C4544004E52465F4552524F525F4D55C5
:10CEC8005445585F554E4C4F434B5F4641494C457E
:10CED80044004E52465F4552524F525F4D5554459D
:10CEE800585F434F4E445F494E49545F4641494C51
:10CEF8004544004E52465F4552524F525F4D4F4493
:10CF0800554C455F414C52454144595F494E49543F
:10CF180049414C495A4544004E52465F4552524F8A
:10CF2800525F53544F524147455F46554C4C004E53
:10CF380052465F4552524F525F4150495F4E4F54DF
:10CF48005F494D504C454D454E544544004E524660
:10CF58005F4552524F525F464541545552455F4EC8
:10CF68004F545F454E41424C4544004E52465F4542
:10CF780052524F525F494F5F50454E44494E470009
:10CF88004E52465F4552524F525F4452565F545775
:10CF9800495F4552525F4F56455252554E004E52C8
:10CFA800465F4552524F525F4452565F5457495F4D
:10CFB8004552525F414E41434B004E52465F4552E7
:10CFC800524F525F4452565F5457495F4552525F21
:10CFD800444E41434B004E52465F4552524F525FBA
:10CFE800424C455F495053505F52585F504B545F15
:10CFF8005452554E4341544544004E52465F4552A3
:10D00800524F525F424C455F495053505F4348412D
:10D018004E4E454C5F414C52454144595F45584935
:10D02800535453004E52465F4552524F525F424C42
:10D03800455F495053505F4C494E4B5F44495343F9
:10D048004F4E4E4543544544004E52465F4552525A
:10D058004F525F424C455F495053505F50454552CF
:10D068005F52454A454354454400636C6F636B0007
:10D07800434C4F434B004750494F5445005052537F
:10D08800005541525400554152544500436F6E6E4D
:10D09800656374656400446973636F6E6E65637479
:10D0A800656400466169725F4469636500504520A4
:10D0B8006173206F7574707574005045206F7574B6
:10D0C80070757420616374697665005045206F75CA
:10D0D80074707574206465616374697661746564DD
:10D0E80000466169722064696365207374617274B3
:10D0F80065642E005465726D696E616C00525454FB
:10D10800005345474745520073645F626C655F672B
:10D11800617474635F65786368616E67655F6D7479
:10D12800755F7265717565737428292072657475E9
:10D13800726E65642025732E0073645F626C655F90
:10D1480067617474735F65786368616E67655F6D46
:10D1580074755F7265706C792829207265747572B0
:10D168006E65642025732E006E72665F626C655F63
:10D17800676174740023D1BCEA5F782315DEEF126F
:10D1880012000000000010020100000004C90100A4
:10D1980004C90100080000000CC901001CC90100F5
:10D1A8000800000004C901000CC9010008000000C3
:10D1B8006E72665F7364680073645F626C655F6358
:10D1C80066675F73657428292072657475726E6569
:10D1D80064202573207768656E20617474656D70AE
:10D1E80074696E6720746F2073657420424C455FC4
:10D1F800434F4E4E5F4346475F4741502E0073648E
:10D208005F626C655F6366675F7365742829207267
:10D21800657475726E6564202573207768656E2065
:10D22800617474656D7074696E6720746F207365BE
:10D238007420424C455F4741505F4346475F524F19
:10D248004C455F434F554E542E0073645F626C65C6
:10D258005F6366675F7365742829207265747572E9
:10D268006E6564202573207768656E206174746527
:10D278006D7074696E6720746F2073657420424CFA
:10D28800455F434F4D4D4F4E5F4346475F56535F93
:10D29800555549442E0073645F626C655F63666729
:10D2A8005F73657428292072657475726E656420D1
:10D2B8002573207768656E20617474656D70746974
:10D2C8006E6720746F2073657420424C455F474138
:10D2D8005454535F4346475F415454525F5441424C
:10D2E8005F53495A452E0073645F626C655F6366DD
:10D2F800675F73657428292072657475726E65643A
:10D30800202573207768656E20617474656D70746C
:10D31800696E6720746F2073657420424C455F47BF
:10D32800415454535F4346475F534552564943451A
:10D338005F4348414E4745442E00496E7375666603
:10D34800696369656E742052414D20616C6C6F632E
:10D358006174656420666F722074686520536F6617
:10D36800744465766963652E004368616E6765205D
:10D378007468652052414D207374617274206C6F1B
:10D38800636174696F6E2066726F6D2030782578DE
:10D3980020746F20307825782E004D6178696D757E
:10D3A8006D2052414D2073697A6520666F72206145
:10D3B80070706C69636174696F6E2069732030786E
:10D3C80025782E0073645F626C655F656E61626CC0
:10D3D8006528292072657475726E65642025732E20
:10D3E80000000000D4C8010004C9010008000000C2
:10D3F8006E72665F7364685F626C6500CCC801001A
:10D40800D4C80100080000006E72665F7364685F2C
:10D41800736F6300202020202020202020682828E7
:10D4280028282020202020202020202020202020E4
:10D43800202020204810101010101010101010106C
:10D44800101010108484848484848484848410104C
:10D458001010101010818181818181010101010169
:10D468000101010101010101010101010101011095
:10D47800101010101082828282828202020202023E
:10D488000202020202020202020202020202021066
:10D49800101010200007032004170201085710403D
:10D4A8008000000050D6010014D5010028D60100E4
:10D4B80053756E004D6F6E005475650057656400B6
:10D4C80054687500467269005361740000000000DA
:10D4D8004A616E00466562004D61720041707200DB
:10D4E8004D6179004A756E004A756C004175670098
:10D4F800536570004F6374004E6F76004465630097
:10D5080000000000414D00504D0000004CD60100C5
:10D5180048D6010048D6010048D6010048D6010087
:10D5280048D6010048D6010048D6010048D6010077
:10D5380048D60100FFFFFFFFFFFFFFFFFFFFFFFFD0
:10D54800FFFF000088D50100B8D40100C4D5010050
:10D55800D8D401000CD501006CD501001CD60100FF
:10D5680078D50100256D2F25642F2579000000004E
:10D578002561202562202565202554202559000095
:10D5880053756E646179004D6F6E646179005475EE
:10D598006573646179005765646E657364617900C9
:10D5A80054687572736461790046726964617900C0
:10D5B8005361747572646179000000004A616E7588
:10D5C800617279004665627275617279004D6172A7
:10D5D800636800417072696C004D6179004A756E2C
:10D5E80065004A756C7900417567757374005365F9
:10D5F8007074656D626572004F63746F6265720066
:10D608004E6F76656D62657200446563656D62652F
:10D618007200000025483A254D3A255300000000C5
:10D62800B5C60100D1C60100DDC60100E9C601008A
:10D6380005C7010011C701001DC701002DC7010062
:10D64800000000002E00000043000000504F534926
:04D658005800000076
:10D65C0000000000FF000000001001401100040059
:10D66C000090D0031C2200201F0000003B22002051
:10D67C001F000000FF00FFFFACD40100ACD4010080
:0CD68C00ACD40100ACD40100ACD401000F
:0400000310009375E1
:00000001FF
